:100000000C9434000C943E000C943E000C943E0082
:100010000C943E000C943E000C943E000C943E0068
:100020000C943E000C943E000C943E000C943E0058
:100030000C943E000C943E000C943E000C943E0048
:100040000C943E000C943E000C943E000C943E0038
:100050000C943E000C943E000C943E000C943E0028
:100060000C943E000C943E0011241FBECFEFD8E04C
:10007000DEBFCDBF0E9440000C946E000C940000C7
:10008000259A21E030E085B145B1B90102C0660F83
:10009000771F8A95E2F7CB01842B85B97FEF8BE739
:1000A00092E9715080409040E1F700C0000085B1B6
:1000B00045B1B90102C0660F771F8A95E2F7CB01FF
:1000C00080959095842385B97FEF8BE792E97150F5
:1000D00080409040E1F700C00000D5CFF894FFCFFA
:00000001FF
